:020000040000FA
:020000000328D3
:040002000034003492
:0A00060007309F000313831600303B
:1000100086008312000086160614861006118611CB
:1000200006122820282028202820282006108614A0
:1000300028208612861086150615282028202820BC
:1000400028202820861106162820061106120B28C3
:100050000730B300B30B2A286C30B000000000005A
:100060000000000000003230B10000003C30B2005F
:0E007000B20B3828B10B3528B00B2E28080033
:02400E00193F58
:00000001FF
